{
  "contractName": "supplyChain",
  "abi": [
    {
      "anonymous": false,
      "inputs": [
        {
          "indexed": false,
          "internalType": "uint32",
          "name": "productId",
          "type": "uint32"
        }
      ],
      "name": "TransferOwnership",
      "type": "event"
    },
    {
      "inputs": [],
      "name": "owner_id",
      "outputs": [
        {
          "internalType": "uint32",
          "name": "",
          "type": "uint32"
        }
      ],
      "stateMutability": "view",
      "type": "function",
      "constant": true
    },
    {
      "inputs": [
        {
          "internalType": "uint32",
          "name": "",
          "type": "uint32"
        }
      ],
      "name": "ownerships",
      "outputs": [
        {
          "internalType": "uint32",
          "name": "productId",
          "type": "uint32"
        },
        {
          "internalType": "uint32",
          "name": "ownerId",
          "type": "uint32"
        },
        {
          "internalType": "uint32",
          "name": "trxTimeStamp",
          "type": "uint32"
        },
        {
          "internalType": "address",
          "name": "productOwner",
          "type": "address"
        }
      ],
      "stateMutability": "view",
      "type": "function",
      "constant": true
    },
    {
      "inputs": [],
      "name": "participant_id",
      "outputs": [
        {
          "internalType": "uint32",
          "name": "",
          "type": "uint32"
        }
      ],
      "stateMutability": "view",
      "type": "function",
      "constant": true
    },
    {
      "inputs": [
        {
          "internalType": "uint32",
          "name": "",
          "type": "uint32"
        }
      ],
      "name": "participants",
      "outputs": [
        {
          "internalType": "string",
          "name": "userName",
          "type": "string"
        },
        {
          "internalType": "string",
          "name": "password",
          "type": "string"
        },
        {
          "internalType": "string",
          "name": "participantType",
          "type": "string"
        },
        {
          "internalType": "address",
          "name": "participantAddress",
          "type": "address"
        }
      ],
      "stateMutability": "view",
      "type": "function",
      "constant": true
    },
    {
      "inputs": [
        {
          "internalType": "uint32",
          "name": "",
          "type": "uint32"
        },
        {
          "internalType": "uint256",
          "name": "",
          "type": "uint256"
        }
      ],
      "name": "productTrack",
      "outputs": [
        {
          "internalType": "uint32",
          "name": "",
          "type": "uint32"
        }
      ],
      "stateMutability": "view",
      "type": "function",
      "constant": true
    },
    {
      "inputs": [],
      "name": "product_id",
      "outputs": [
        {
          "internalType": "uint32",
          "name": "",
          "type": "uint32"
        }
      ],
      "stateMutability": "view",
      "type": "function",
      "constant": true
    },
    {
      "inputs": [
        {
          "internalType": "uint32",
          "name": "",
          "type": "uint32"
        }
      ],
      "name": "products",
      "outputs": [
        {
          "internalType": "string",
          "name": "modelNumber",
          "type": "string"
        },
        {
          "internalType": "string",
          "name": "partNumber",
          "type": "string"
        },
        {
          "internalType": "string",
          "name": "serialNumber",
          "type": "string"
        },
        {
          "internalType": "address",
          "name": "productOwner",
          "type": "address"
        },
        {
          "internalType": "uint32",
          "name": "cost",
          "type": "uint32"
        },
        {
          "internalType": "uint32",
          "name": "mfgTimeStamp",
          "type": "uint32"
        }
      ],
      "stateMutability": "view",
      "type": "function",
      "constant": true
    },
    {
      "inputs": [
        {
          "internalType": "string",
          "name": "_name",
          "type": "string"
        },
        {
          "internalType": "string",
          "name": "_pass",
          "type": "string"
        },
        {
          "internalType": "address",
          "name": "_pAdd",
          "type": "address"
        },
        {
          "internalType": "string",
          "name": "_pType",
          "type": "string"
        }
      ],
      "name": "addParticipant",
      "outputs": [
        {
          "internalType": "uint32",
          "name": "",
          "type": "uint32"
        }
      ],
      "stateMutability": "nonpayable",
      "type": "function"
    },
    {
      "inputs": [
        {
          "internalType": "uint32",
          "name": "_participant_id",
          "type": "uint32"
        }
      ],
      "name": "getParticipant",
      "outputs": [
        {
          "internalType": "string",
          "name": "",
          "type": "string"
        },
        {
          "internalType": "address",
          "name": "",
          "type": "address"
        },
        {
          "internalType": "string",
          "name": "",
          "type": "string"
        }
      ],
      "stateMutability": "view",
      "type": "function",
      "constant": true
    },
    {
      "inputs": [
        {
          "internalType": "uint32",
          "name": "_ownerId",
          "type": "uint32"
        },
        {
          "internalType": "string",
          "name": "_modelNumber",
          "type": "string"
        },
        {
          "internalType": "string",
          "name": "_partNumber",
          "type": "string"
        },
        {
          "internalType": "string",
          "name": "_serialNumber",
          "type": "string"
        },
        {
          "internalType": "uint32",
          "name": "_productCost",
          "type": "uint32"
        }
      ],
      "name": "addProduct",
      "outputs": [
        {
          "internalType": "uint32",
          "name": "",
          "type": "uint32"
        }
      ],
      "stateMutability": "nonpayable",
      "type": "function"
    },
    {
      "inputs": [
        {
          "internalType": "uint32",
          "name": "_productId",
          "type": "uint32"
        }
      ],
      "name": "getProduct",
      "outputs": [
        {
          "internalType": "string",
          "name": "",
          "type": "string"
        },
        {
          "internalType": "string",
          "name": "",
          "type": "string"
        },
        {
          "internalType": "string",
          "name": "",
          "type": "string"
        },
        {
          "internalType": "uint32",
          "name": "",
          "type": "uint32"
        },
        {
          "internalType": "address",
          "name": "",
          "type": "address"
        },
        {
          "internalType": "uint32",
          "name": "",
          "type": "uint32"
        }
      ],
      "stateMutability": "view",
      "type": "function",
      "constant": true
    },
    {
      "inputs": [
        {
          "internalType": "uint32",
          "name": "_user1Id",
          "type": "uint32"
        },
        {
          "internalType": "uint32",
          "name": "_user2Id",
          "type": "uint32"
        },
        {
          "internalType": "uint32",
          "name": "_prodId",
          "type": "uint32"
        }
      ],
      "name": "newOwner",
      "outputs": [
        {
          "internalType": "bool",
          "name": "",
          "type": "bool"
        }
      ],
      "stateMutability": "nonpayable",
      "type": "function"
    },
    {
      "inputs": [
        {
          "internalType": "uint32",
          "name": "_prodId",
          "type": "uint32"
        }
      ],
      "name": "getProvenance",
      "outputs": [
        {
          "internalType": "uint32[]",
          "name": "",
          "type": "uint32[]"
        }
      ],
      "stateMutability": "view",
      "type": "function",
      "constant": true
    },
    {
      "inputs": [
        {
          "internalType": "uint32",
          "name": "_regId",
          "type": "uint32"
        }
      ],
      "name": "getOwnership",
      "outputs": [
        {
          "internalType": "uint32",
          "name": "",
          "type": "uint32"
        },
        {
          "internalType": "uint32",
          "name": "",
          "type": "uint32"
        },
        {
          "internalType": "address",
          "name": "",
          "type": "address"
        },
        {
          "internalType": "uint32",
          "name": "",
          "type": "uint32"
        }
      ],
      "stateMutability": "view",
      "type": "function",
      "constant": true
    },
    {
      "inputs": [
        {
          "internalType": "uint32",
          "name": "_uid",
          "type": "uint32"
        },
        {
          "internalType": "string",
          "name": "_uname",
          "type": "string"
        },
        {
          "internalType": "string",
          "name": "_pass",
          "type": "string"
        },
        {
          "internalType": "string",
          "name": "_utype",
          "type": "string"
        }
      ],
      "name": "authenticateParticipant",
      "outputs": [
        {
          "internalType": "bool",
          "name": "",
          "type": "bool"
        }
      ],
      "stateMutability": "view",
      "type": "function",
      "constant": true
    }
  ],
  "bytecode": "0x608060405260008060006101000a81548163ffffffff021916908363ffffffff16021790555060008060046101000a81548163ffffffff021916908363ffffffff16021790555060008060086101000a81548163ffffffff021916908363ffffffff16021790555034801561007357600080fd5b50613009806100836000396000f3fe608060405234801561001057600080fd5b50600436106100f55760003560e01c80638f5ebf7111610097578063df6d23f111610066578063df6d23f11461030a578063eab0a4791461033d578063ebf43a7e1461035b578063fc2da9101461038b576100f5565b80638f5ebf7114610252578063a638ac4914610270578063bf712fd6146102a5578063c8569565146102da576100f5565b806350632104116100d3578063506321041461018c578063721b5743146101bc5780637d0a9ac9146101ec57806381e156101461021f576100f5565b80631a074802146100fa5780632e9d52841461012a5780633b26a65d1461015a575b600080fd5b610114600480360381019061010f91906122d2565b6103a9565b6040516101219190612321565b60405180910390f35b610144600480360381019061013f919061233c565b6103f2565b60405161015191906123aa565b60405180910390f35b610174600480360381019061016f91906123c5565b611212565b604051610183939291906124cc565b60405180910390f35b6101a660048036038101906101a19190612646565b6113c4565b6040516101b39190612321565b60405180910390f35b6101d660048036038101906101d19190612715565b611643565b6040516101e391906123aa565b60405180910390f35b610206600480360381019061020191906123c5565b6117b9565b60405161021694939291906127d0565b60405180910390f35b610239600480360381019061023491906123c5565b6119a1565b604051610249949392919061282a565b60405180910390f35b61025a611a21565b6040516102679190612321565b60405180910390f35b61028a600480360381019061028591906123c5565b611a37565b60405161029c9695949392919061286f565b60405180910390f35b6102bf60048036038101906102ba91906123c5565b611d09565b6040516102d1969594939291906128e5565b60405180910390f35b6102f460048036038101906102ef91906123c5565b611f1d565b6040516103019190612a19565b60405180910390f35b610324600480360381019061031f91906123c5565b611fc0565b6040516103349493929190612a3b565b60405180910390f35b6103456120e0565b6040516103529190612321565b60405180910390f35b61037560048036038101906103709190612aac565b6120f4565b6040516103829190612321565b60405180910390f35b610393612236565b6040516103a09190612321565b60405180910390f35b600460205281600052604060002081815481106103c557600080fd5b9060005260206000209060089182820401919006600402915091509054906101000a900463ffffffff1681565b600081600160008263ffffffff1663ffffffff16815260200190815260200160002060030160009054906101000a900473ffffffffffffffffffffffffffffffffffffffff1673ffffffffffffffffffffffffffffffffffffffff163373ffffffffffffffffffffffffffffffffffffffff16146104a5576040517f08c379a000000000000000000000000000000000000000000000000000000000815260040161049c90612b8d565b60405180910390fd5b6000600260008763ffffffff1663ffffffff1681526020019081526020016000206040518060800160405290816000820180546104e190612bdc565b80601f016020809104026020016040519081016040528092919081815260200182805461050d90612bdc565b801561055a5780601f1061052f5761010080835404028352916020019161055a565b820191906000526020600020905b81548152906001019060200180831161053d57829003601f168201915b5050505050815260200160018201805461057390612bdc565b80601f016020809104026020016040519081016040528092919081815260200182805461059f90612bdc565b80156105ec5780601f106105c1576101008083540402835291602001916105ec565b820191906000526020600020905b8154815290600101906020018083116105cf57829003601f168201915b5050505050815260200160028201805461060590612bdc565b80601f016020809104026020016040519081016040528092919081815260200182805461063190612bdc565b801561067e5780601f106106535761010080835404028352916020019161067e565b820191906000526020600020905b81548152906001019060200180831161066157829003601f168201915b505050505081526020016003820160009054906101000a900473ffffffffffffffffffffffffffffffffffffffff1673ffffffffffffffffffffffffffffffffffffffff1673ffffffffffffffffffffffffffffffffffffffff168152505090506000600260008763ffffffff1663ffffffff16815260200190815260200160002060405180608001604052908160008201805461071b90612bdc565b80601f016020809104026020016040519081016040528092919081815260200182805461074790612bdc565b80156107945780601f1061076957610100808354040283529160200191610794565b820191906000526020600020905b81548152906001019060200180831161077757829003601f168201915b505050505081526020016001820180546107ad90612bdc565b80601f01602080910402602001604051908101604052809291908181526020018280546107d990612bdc565b80156108265780601f106107fb57610100808354040283529160200191610826565b820191906000526020600020905b81548152906001019060200180831161080957829003601f168201915b5050505050815260200160028201805461083f90612bdc565b80601f016020809104026020016040519081016040528092919081815260200182805461086b90612bdc565b80156108b85780601f1061088d576101008083540402835291602001916108b8565b820191906000526020600020905b81548152906001019060200180831161089b57829003601f168201915b505050505081526020016003820160009054906101000a900473ffffffffffffffffffffffffffffffffffffffff1673ffffffffffffffffffffffffffffffffffffffff1673ffffffffffffffffffffffffffffffffffffffff16815250509050600080600881819054906101000a900463ffffffff168092919061093c90612c3c565b91906101000a81548163ffffffff021916908363ffffffff16021790555090507fcec9b8e63c868f2f7f30368f1583e7aa39ae80e163d57a859fa5a90244b28ac183604001516040516020016109929190612ca4565b604051602081830303815290604052805190602001201480156109fe57507fb77c7d6bf62fa24fc205955093030c58325cd2d3d35fb486ede7594fb99635f582604001516040516020016109e69190612ca4565b60405160208183030381529060405280519060200120145b15610c3e5785600360008363ffffffff1663ffffffff16815260200190815260200160002060000160006101000a81548163ffffffff021916908363ffffffff1602179055508160600151600360008363ffffffff1663ffffffff168152602001908152602001600020600001600c6101000a81548173ffffffffffffffffffffffffffffffffffffffff021916908373ffffffffffffffffffffffffffffffffffffffff16021790555086600360008363ffffffff1663ffffffff16815260200190815260200160002060000160046101000a81548163ffffffff021916908363ffffffff16021790555042600360008363ffffffff1663ffffffff16815260200190815260200160002060000160086101000a81548163ffffffff021916908363ffffffff1602179055508160600151600160008863ffffffff1663ffffffff16815260200190815260200160002060030160006101000a81548173ffffffffffffffffffffffffffffffffffffffff021916908373ffffffffffffffffffffffffffffffffffffffff160217905550600460008763ffffffff1663ffffffff1681526020019081526020016000208190806001815401808255809150506001900390600052602060002090600891828204019190066004029091909190916101000a81548163ffffffff021916908363ffffffff1602179055507fa5470ac012c6e9dc500e62b1d3de0de58db49b3ab7cfebbfb126d9abd854199b86604051610c2a9190612321565b60405180910390a16001945050505061120a565b7fb77c7d6bf62fa24fc205955093030c58325cd2d3d35fb486ede7594fb99635f58360400151604051602001610c749190612ca4565b60405160208183030381529060405280519060200120148015610ce057507fb77c7d6bf62fa24fc205955093030c58325cd2d3d35fb486ede7594fb99635f58260400151604051602001610cc89190612ca4565b60405160208183030381529060405280519060200120145b15610f205785600360008363ffffffff1663ffffffff16815260200190815260200160002060000160006101000a81548163ffffffff021916908363ffffffff1602179055508160600151600360008363ffffffff1663ffffffff168152602001908152602001600020600001600c6101000a81548173ffffffffffffffffffffffffffffffffffffffff021916908373ffffffffffffffffffffffffffffffffffffffff16021790555086600360008363ffffffff1663ffffffff16815260200190815260200160002060000160046101000a81548163ffffffff021916908363ffffffff16021790555042600360008363ffffffff1663ffffffff16815260200190815260200160002060000160086101000a81548163ffffffff021916908363ffffffff1602179055508160600151600160008863ffffffff1663ffffffff16815260200190815260200160002060030160006101000a81548173ffffffffffffffffffffffffffffffffffffffff021916908373ffffffffffffffffffffffffffffffffffffffff160217905550600460008763ffffffff1663ffffffff1681526020019081526020016000208190806001815401808255809150506001900390600052602060002090600891828204019190066004029091909190916101000a81548163ffffffff021916908363ffffffff1602179055507fa5470ac012c6e9dc500e62b1d3de0de58db49b3ab7cfebbfb126d9abd854199b86604051610f0c9190612321565b60405180910390a16001945050505061120a565b7fb77c7d6bf62fa24fc205955093030c58325cd2d3d35fb486ede7594fb99635f58360400151604051602001610f569190612ca4565b60405160208183030381529060405280519060200120148015610fc257507fc0878b4b16a78e8085cba0ca02fc0924f1492924058d153153a3f286e0fd70ff8260400151604051602001610faa9190612ca4565b60405160208183030381529060405280519060200120145b156112025785600360008363ffffffff1663ffffffff16815260200190815260200160002060000160006101000a81548163ffffffff021916908363ffffffff1602179055508160600151600360008363ffffffff1663ffffffff168152602001908152602001600020600001600c6101000a81548173ffffffffffffffffffffffffffffffffffffffff021916908373ffffffffffffffffffffffffffffffffffffffff16021790555086600360008363ffffffff1663ffffffff16815260200190815260200160002060000160046101000a81548163ffffffff021916908363ffffffff16021790555042600360008363ffffffff1663ffffffff16815260200190815260200160002060000160086101000a81548163ffffffff021916908363ffffffff1602179055508160600151600160008863ffffffff1663ffffffff16815260200190815260200160002060030160006101000a81548173ffffffffffffffffffffffffffffffffffffffff021916908373ffffffffffffffffffffffffffffffffffffffff160217905550600460008763ffffffff1663ffffffff1681526020019081526020016000208190806001815401808255809150506001900390600052602060002090600891828204019190066004029091909190916101000a81548163ffffffff021916908363ffffffff1602179055507fa5470ac012c6e9dc500e62b1d3de0de58db49b3ab7cfebbfb126d9abd854199b866040516111ee9190612321565b60405180910390a16001945050505061120a565b600094505050505b509392505050565b606060006060600260008563ffffffff1663ffffffff168152602001908152602001600020600001600260008663ffffffff1663ffffffff16815260200190815260200160002060030160009054906101000a900473ffffffffffffffffffffffffffffffffffffffff16600260008763ffffffff1663ffffffff1681526020019081526020016000206002018280546112ab90612bdc565b80601f01602080910402602001604051908101604052809291908181526020018280546112d790612bdc565b80156113245780601f106112f957610100808354040283529160200191611324565b820191906000526020600020905b81548152906001019060200180831161130757829003601f168201915b5050505050925080805461133790612bdc565b80601f016020809104026020016040519081016040528092919081815260200182805461136390612bdc565b80156113b05780601f10611385576101008083540402835291602001916113b0565b820191906000526020600020905b81548152906001019060200180831161139357829003601f168201915b505050505090509250925092509193909250565b60007fcec9b8e63c868f2f7f30368f1583e7aa39ae80e163d57a859fa5a90244b28ac1600260008863ffffffff1663ffffffff1681526020019081526020016000206002016040516020016114199190612d53565b604051602081830303815290604052805190602001200361163557600080600081819054906101000a900463ffffffff168092919061145790612c3c565b91906101000a81548163ffffffff021916908363ffffffff160217905550905085600160008363ffffffff1663ffffffff16815260200190815260200160002060000190816114a69190612f01565b5084600160008363ffffffff1663ffffffff16815260200190815260200160002060010190816114d69190612f01565b5083600160008363ffffffff1663ffffffff16815260200190815260200160002060020190816115069190612f01565b5082600160008363ffffffff1663ffffffff16815260200190815260200160002060030160146101000a81548163ffffffff021916908363ffffffff160217905550600260008863ffffffff1663ffffffff16815260200190815260200160002060030160009054906101000a900473ffffffffffffffffffffffffffffffffffffffff16600160008363ffffffff1663ffffffff16815260200190815260200160002060030160006101000a81548173ffffffffffffffffffffffffffffffffffffffff021916908373ffffffffffffffffffffffffffffffffffffffff16021790555042600160008363ffffffff1663ffffffff16815260200190815260200160002060030160186101000a81548163ffffffff021916908363ffffffff1602179055508091505061163a565b600090505b95945050505050565b6000816040516020016116569190612ca4565b60405160208183030381529060405280519060200120600260008763ffffffff1663ffffffff16815260200190815260200160002060020160405160200161169e9190612d53565b60405160208183030381529060405280519060200120036117ac57836040516020016116ca9190612ca4565b60405160208183030381529060405280519060200120600260008763ffffffff1663ffffffff1681526020019081526020016000206000016040516020016117129190612d53565b60405160208183030381529060405280519060200120036117ab578260405160200161173e9190612ca4565b60405160208183030381529060405280519060200120600260008763ffffffff1663ffffffff1681526020019081526020016000206001016040516020016117869190612d53565b60405160208183030381529060405280519060200120036117aa57600190506117b1565b5b5b600090505b949350505050565b60026020528060005260406000206000915090508060000180546117dc90612bdc565b80601f016020809104026020016040519081016040528092919081815260200182805461180890612bdc565b80156118555780601f1061182a57610100808354040283529160200191611855565b820191906000526020600020905b81548152906001019060200180831161183857829003601f168201915b50505050509080600101805461186a90612bdc565b80601f016020809104026020016040519081016040528092919081815260200182805461189690612bdc565b80156118e35780601f106118b8576101008083540402835291602001916118e3565b820191906000526020600020905b8154815290600101906020018083116118c657829003601f168201915b5050505050908060020180546118f890612bdc565b80601f016020809104026020016040519081016040528092919081815260200182805461192490612bdc565b80156119715780601f1061194657610100808354040283529160200191611971565b820191906000526020600020905b81548152906001019060200180831161195457829003601f168201915b5050505050908060030160009054906101000a900473ffffffffffffffffffffffffffffffffffffffff16905084565b60036020528060005260406000206000915090508060000160009054906101000a900463ffffffff16908060000160049054906101000a900463ffffffff16908060000160089054906101000a900463ffffffff169080600001600c9054906101000a900473ffffffffffffffffffffffffffffffffffffffff16905084565b600060089054906101000a900463ffffffff1681565b60608060606000806000600160008863ffffffff1663ffffffff168152602001908152602001600020600001600160008963ffffffff1663ffffffff168152602001908152602001600020600101600160008a63ffffffff1663ffffffff168152602001908152602001600020600201600160008b63ffffffff1663ffffffff16815260200190815260200160002060030160149054906101000a900463ffffffff16600160008c63ffffffff1663ffffffff16815260200190815260200160002060030160009054906101000a900473ffffffffffffffffffffffffffffffffffffffff16600160008d63ffffffff1663ffffffff16815260200190815260200160002060030160189054906101000a900463ffffffff16858054611b5c90612bdc565b80601f0160208091040260200160405190810160405280929190818152602001828054611b8890612bdc565b8015611bd55780601f10611baa57610100808354040283529160200191611bd5565b820191906000526020600020905b815481529060010190602001808311611bb857829003601f168201915b50505050509550848054611be890612bdc565b80601f0160208091040260200160405190810160405280929190818152602001828054611c1490612bdc565b8015611c615780601f10611c3657610100808354040283529160200191611c61565b820191906000526020600020905b815481529060010190602001808311611c4457829003601f168201915b50505050509450838054611c7490612bdc565b80601f0160208091040260200160405190810160405280929190818152602001828054611ca090612bdc565b8015611ced5780601f10611cc257610100808354040283529160200191611ced565b820191906000526020600020905b815481529060010190602001808311611cd057829003601f168201915b5050505050935095509550955095509550955091939550919395565b6001602052806000526040600020600091509050806000018054611d2c90612bdc565b80601f0160208091040260200160405190810160405280929190818152602001828054611d5890612bdc565b8015611da55780601f10611d7a57610100808354040283529160200191611da5565b820191906000526020600020905b815481529060010190602001808311611d8857829003601f168201915b505050505090806001018054611dba90612bdc565b80601f0160208091040260200160405190810160405280929190818152602001828054611de690612bdc565b8015611e335780601f10611e0857610100808354040283529160200191611e33565b820191906000526020600020905b815481529060010190602001808311611e1657829003601f168201915b505050505090806002018054611e4890612bdc565b80601f0160208091040260200160405190810160405280929190818152602001828054611e7490612bdc565b8015611ec15780601f10611e9657610100808354040283529160200191611ec1565b820191906000526020600020905b815481529060010190602001808311611ea457829003601f168201915b5050505050908060030160009054906101000a900473ffffffffffffffffffffffffffffffffffffffff16908060030160149054906101000a900463ffffffff16908060030160189054906101000a900463ffffffff16905086565b6060600460008363ffffffff1663ffffffff168152602001908152602001600020805480602002602001604051908101604052809291908181526020018280548015611fb457602002820191906000526020600020906000905b82829054906101000a900463ffffffff1663ffffffff1681526020019060040190602082600301049283019260010382029150808411611f775790505b50505050509050919050565b6000806000806000600360008763ffffffff1663ffffffff1681526020019081526020016000206040518060800160405290816000820160009054906101000a900463ffffffff1663ffffffff1663ffffffff1681526020016000820160049054906101000a900463ffffffff1663ffffffff1663ffffffff1681526020016000820160089054906101000a900463ffffffff1663ffffffff1663ffffffff16815260200160008201600c9054906101000a900473ffffffffffffffffffffffffffffffffffffffff1673ffffffffffffffffffffffffffffffffffffffff1673ffffffffffffffffffffffffffffffffffffffff1681525050905080600001518160200151826060015183604001519450945094509450509193509193565b60008054906101000a900463ffffffff1681565b6000806000600481819054906101000a900463ffffffff168092919061211990612c3c565b91906101000a81548163ffffffff021916908363ffffffff160217905550905085600260008363ffffffff1663ffffffff16815260200190815260200160002060000190816121689190612f01565b5084600260008363ffffffff1663ffffffff16815260200190815260200160002060010190816121989190612f01565b5083600260008363ffffffff1663ffffffff16815260200190815260200160002060030160006101000a81548173ffffffffffffffffffffffffffffffffffffffff021916908373ffffffffffffffffffffffffffffffffffffffff16021790555082600260008363ffffffff1663ffffffff16815260200190815260200160002060020190816122299190612f01565b5080915050949350505050565b600060049054906101000a900463ffffffff1681565b6000604051905090565b600080fd5b600080fd5b600063ffffffff82169050919050565b61227981612260565b811461228457600080fd5b50565b60008135905061229681612270565b92915050565b6000819050919050565b6122af8161229c565b81146122ba57600080fd5b50565b6000813590506122cc816122a6565b92915050565b600080604083850312156122e9576122e8612256565b5b60006122f785828601612287565b9250506020612308858286016122bd565b9150509250929050565b61231b81612260565b82525050565b60006020820190506123366000830184612312565b92915050565b60008060006060848603121561235557612354612256565b5b600061236386828701612287565b935050602061237486828701612287565b925050604061238586828701612287565b9150509250925092565b60008115159050919050565b6123a48161238f565b82525050565b60006020820190506123bf600083018461239b565b92915050565b6000602082840312156123db576123da612256565b5b60006123e984828501612287565b91505092915050565b600081519050919050565b600082825260208201905092915050565b60005b8381101561242c578082015181840152602081019050612411565b8381111561243b576000848401525b50505050565b6000601f19601f8301169050919050565b600061245d826123f2565b61246781856123fd565b935061247781856020860161240e565b61248081612441565b840191505092915050565b600073ffffffffffffffffffffffffffffffffffffffff82169050919050565b60006124b68261248b565b9050919050565b6124c6816124ab565b82525050565b600060608201905081810360008301526124e68186612452565b90506124f560208301856124bd565b81810360408301526125078184612452565b9050949350505050565b600080fd5b600080fd5b7f4e487b7100000000000000000000000000000000000000000000000000000000600052604160045260246000fd5b61255382612441565b810181811067ffffffffffffffff821117156125725761257161251b565b5b80604052505050565b600061258561224c565b9050612591828261254a565b919050565b600067ffffffffffffffff8211156125b1576125b061251b565b5b6125ba82612441565b9050602081019050919050565b82818337600083830152505050565b60006125e96125e484612596565b61257b565b90508281526020810184848401111561260557612604612516565b5b6126108482856125c7565b509392505050565b600082601f83011261262d5761262c612511565b5b813561263d8482602086016125d6565b91505092915050565b600080600080600060a0868803121561266257612661612256565b5b600061267088828901612287565b955050602086013567ffffffffffffffff8111156126915761269061225b565b5b61269d88828901612618565b945050604086013567ffffffffffffffff8111156126be576126bd61225b565b5b6126ca88828901612618565b935050606086013567ffffffffffffffff8111156126eb576126ea61225b565b5b6126f788828901612618565b925050608061270888828901612287565b9150509295509295909350565b6000806000806080858703121561272f5761272e612256565b5b600061273d87828801612287565b945050602085013567ffffffffffffffff81111561275e5761275d61225b565b5b61276a87828801612618565b935050604085013567ffffffffffffffff81111561278b5761278a61225b565b5b61279787828801612618565b925050606085013567ffffffffffffffff8111156127b8576127b761225b565b5b6127c487828801612618565b91505092959194509250565b600060808201905081810360008301526127ea8187612452565b905081810360208301526127fe8186612452565b905081810360408301526128128185612452565b905061282160608301846124bd565b95945050505050565b600060808201905061283f6000830187612312565b61284c6020830186612312565b6128596040830185612312565b61286660608301846124bd565b95945050505050565b600060c08201905081810360008301526128898189612452565b9050818103602083015261289d8188612452565b905081810360408301526128b18187612452565b90506128c06060830186612312565b6128cd60808301856124bd565b6128da60a0830184612312565b979650505050505050565b600060c08201905081810360008301526128ff8189612452565b905081810360208301526129138188612452565b905081810360408301526129278187612452565b905061293660608301866124bd565b6129436080830185612312565b61295060a0830184612312565b979650505050505050565b600081519050919050565b600082825260208201905092915050565b6000819050602082019050919050565b61299081612260565b82525050565b60006129a28383612987565b60208301905092915050565b6000602082019050919050565b60006129c68261295b565b6129d08185612966565b93506129db83612977565b8060005b83811015612a0c5781516129f38882612996565b97506129fe836129ae565b9250506001810190506129df565b5085935050505092915050565b60006020820190508181036000830152612a3381846129bb565b905092915050565b6000608082019050612a506000830187612312565b612a5d6020830186612312565b612a6a60408301856124bd565b612a776060830184612312565b95945050505050565b612a89816124ab565b8114612a9457600080fd5b50565b600081359050612aa681612a80565b92915050565b60008060008060808587031215612ac657612ac5612256565b5b600085013567ffffffffffffffff811115612ae457612ae361225b565b5b612af087828801612618565b945050602085013567ffffffffffffffff811115612b1157612b1061225b565b5b612b1d87828801612618565b9350506040612b2e87828801612a97565b925050606085013567ffffffffffffffff811115612b4f57612b4e61225b565b5b612b5b87828801612618565b91505092959194509250565b50565b6000612b776000836123fd565b9150612b8282612b67565b600082019050919050565b60006020820190508181036000830152612ba681612b6a565b9050919050565b7f4e487b7100000000000000000000000000000000000000000000000000000000600052602260045260246000fd5b60006002820490506001821680612bf457607f821691505b602082108103612c0757612c06612bad565b5b50919050565b7f4e487b7100000000000000000000000000000000000000000000000000000000600052601160045260246000fd5b6000612c4782612260565b915063ffffffff8203612c5d57612c5c612c0d565b5b600182019050919050565b600081905092915050565b6000612c7e826123f2565b612c888185612c68565b9350612c9881856020860161240e565b80840191505092915050565b6000612cb08284612c73565b915081905092915050565b60008190508160005260206000209050919050565b60008154612cdd81612bdc565b612ce78186612c68565b94506001821660008114612d025760018114612d1757612d4a565b60ff1983168652811515820286019350612d4a565b612d2085612cbb565b60005b83811015612d4257815481890152600182019150602081019050612d23565b838801955050505b50505092915050565b6000612d5f8284612cd0565b915081905092915050565b60006020601f8301049050919050565b600082821b905092915050565b600060088302612db77fffffffffffffffffffffffffffffffffffffffffffffffffffffffffffffffff82612d7a565b612dc18683612d7a565b95508019841693508086168417925050509392505050565b6000819050919050565b6000612dfe612df9612df48461229c565b612dd9565b61229c565b9050919050565b6000819050919050565b612e1883612de3565b612e2c612e2482612e05565b848454612d87565b825550505050565b600090565b612e41612e34565b612e4c818484612e0f565b505050565b5b81811015612e7057612e65600082612e39565b600181019050612e52565b5050565b601f821115612eb557612e8681612cbb565b612e8f84612d6a565b81016020851015612e9e578190505b612eb2612eaa85612d6a565b830182612e51565b50505b505050565b600082821c905092915050565b6000612ed860001984600802612eba565b1980831691505092915050565b6000612ef18383612ec7565b9150826002028217905092915050565b612f0a826123f2565b67ffffffffffffffff811115612f2357612f2261251b565b5b612f2d8254612bdc565b612f38828285612e74565b600060209050601f831160018114612f6b5760008415612f59578287015190505b612f638582612ee5565b865550612fcb565b601f198416612f7986612cbb565b60005b82811015612fa157848901518255600182019150602085019450602081019050612f7c565b86831015612fbe5784890151612fba601f891682612ec7565b8355505b6001600288020188555050505b50505050505056fea2646970667358221220567f2e47090844bc3c0d1112cd46500b8d013f12c9b68b2a4fb5aa7301d2a83f64736f6c634300080f0033",
  "immutableReferences": {},
  "source": "pragma solidity ^0.8.0;\n \n//  Token contract address => 0x7dF307BdED53eAAe9Db33ecC4bf70f81876AE93B\ncontract supplyChain {\n    uint32 public product_id = 0;   // Product ID\n    uint32 public participant_id = 0;   // Participant ID\n    uint32 public owner_id = 0;   // Ownership ID\n \n    struct product {\n        string modelNumber;\n        string partNumber;\n        string serialNumber;\n        address productOwner;\n        uint32 cost;\n        uint32 mfgTimeStamp;\n    }\n \n    mapping(uint32 => product) public products;\n \n    struct participant {\n        string userName;\n        string password;\n        string participantType;\n        address participantAddress;\n    }\n    mapping(uint32 => participant) public participants;\n \n    struct ownership {\n        uint32 productId;\n        uint32 ownerId;\n        uint32 trxTimeStamp;\n        address productOwner;\n    }\n    mapping(uint32 => ownership) public ownerships; // ownerships by ownership ID (owner_id)\n    mapping(uint32 => uint32[]) public productTrack;  // ownerships by Product ID (product_id) / Movement track for a product\n \n    event TransferOwnership(uint32 productId);\n \n    function addParticipant(string memory _name, string memory _pass, address _pAdd, string memory _pType) public returns (uint32){\n        uint32 userId = participant_id++;\n        participants[userId].userName = _name;\n        participants[userId].password = _pass;\n        participants[userId].participantAddress = _pAdd;\n        participants[userId].participantType = _pType;\n \n        return userId;\n    }\n \n    function getParticipant(uint32 _participant_id) public view returns (string memory,address,string memory) {\n        return (participants[_participant_id].userName,\n                participants[_participant_id].participantAddress,\n                participants[_participant_id].participantType);\n    }\n \n    function addProduct(uint32 _ownerId,\n                        string memory _modelNumber,\n                        string memory _partNumber,\n                        string memory _serialNumber,\n                        uint32 _productCost) public returns (uint32) {\n        if(keccak256(abi.encodePacked(participants[_ownerId].participantType)) == keccak256(\"Manufacturer\")) {\n            uint32 productId = product_id++;\n \n            products[productId].modelNumber = _modelNumber;\n            products[productId].partNumber = _partNumber;\n            products[productId].serialNumber = _serialNumber;\n            products[productId].cost = _productCost;\n            products[productId].productOwner = participants[_ownerId].participantAddress;\n            products[productId].mfgTimeStamp = uint32(block.timestamp);\n \n            return productId;\n        }\n \n       return 0;\n    }\n \n    modifier onlyOwner(uint32 _productId) {\n         require(msg.sender == products[_productId].productOwner,\"\");\n         _;\n \n    }\n \n    function getProduct(uint32 _productId) public view returns (string memory,string memory,string memory,uint32,address,uint32){\n        return (products[_productId].modelNumber,\n                products[_productId].partNumber,\n                products[_productId].serialNumber,\n                products[_productId].cost,\n                products[_productId].productOwner,\n                products[_productId].mfgTimeStamp);\n    }\n \n    function newOwner(uint32 _user1Id,uint32 _user2Id, uint32 _prodId) onlyOwner(_prodId) public returns (bool) {\n        participant memory p1 = participants[_user1Id];\n        participant memory p2 = participants[_user2Id];\n        uint32 ownership_id = owner_id++;\n \n        if(keccak256(abi.encodePacked(p1.participantType)) == keccak256(\"Manufacturer\")\n            && keccak256(abi.encodePacked(p2.participantType))==keccak256(\"Supplier\")){\n            ownerships[ownership_id].productId = _prodId;\n            ownerships[ownership_id].productOwner = p2.participantAddress;\n            ownerships[ownership_id].ownerId = _user2Id;\n            ownerships[ownership_id].trxTimeStamp = uint32(block.timestamp);\n            products[_prodId].productOwner = p2.participantAddress;\n            productTrack[_prodId].push(ownership_id);\n            emit TransferOwnership(_prodId);\n \n            return (true);\n        }\n        else if(keccak256(abi.encodePacked(p1.participantType)) == keccak256(\"Supplier\") && keccak256(abi.encodePacked(p2.participantType))==keccak256(\"Supplier\")){\n            ownerships[ownership_id].productId = _prodId;\n            ownerships[ownership_id].productOwner = p2.participantAddress;\n            ownerships[ownership_id].ownerId = _user2Id;\n            ownerships[ownership_id].trxTimeStamp = uint32(block.timestamp);\n            products[_prodId].productOwner = p2.participantAddress;\n            productTrack[_prodId].push(ownership_id);\n            emit TransferOwnership(_prodId);\n \n            return (true);\n        }\n        else if(keccak256(abi.encodePacked(p1.participantType)) == keccak256(\"Supplier\") && keccak256(abi.encodePacked(p2.participantType))==keccak256(\"Consumer\")){\n            ownerships[ownership_id].productId = _prodId;\n            ownerships[ownership_id].productOwner = p2.participantAddress;\n            ownerships[ownership_id].ownerId = _user2Id;\n            ownerships[ownership_id].trxTimeStamp = uint32(block.timestamp);\n            products[_prodId].productOwner = p2.participantAddress;\n            productTrack[_prodId].push(ownership_id);\n            emit TransferOwnership(_prodId);\n \n            return (true);\n        }\n \n        return (false);\n    }\n \n    function getProvenance(uint32 _prodId) external view returns (uint32[] memory) {\n \n       return productTrack[_prodId];\n    }\n \n    function getOwnership(uint32 _regId)  public view returns (uint32,uint32,address,uint32) {\n \n        ownership memory r = ownerships[_regId];\n \n         return (r.productId,r.ownerId,r.productOwner,r.trxTimeStamp);\n    }\n \n    function authenticateParticipant(uint32 _uid,\n                                    string memory _uname,\n                                    string memory _pass,\n                                    string memory _utype) public view returns (bool){\n        if(keccak256(abi.encodePacked(participants[_uid].participantType)) == keccak256(abi.encodePacked(_utype))) {\n            if(keccak256(abi.encodePacked(participants[_uid].userName)) == keccak256(abi.encodePacked(_uname))) {\n                if(keccak256(abi.encodePacked(participants[_uid].password)) == keccak256(abi.encodePacked(_pass))) {\n                    return (true);\n                }\n            }\n        }\n \n        return (false);\n    }\n}\n",
  "sourcePath": "/Users/shubham/suppychaindapp/contracts/supplyChainContract.sol",
  "compiler": {
    "name": "solc",
    "version": "0.8.15+commit.e14f2714.Emscripten.clang"
  },
  "schemaVersion": "3.4.8",
  "updatedAt": "2022-10-11T05:01:25.445Z",
  "networkType": "ethereum",
  "devdoc": {
    "kind": "dev",
    "methods": {},
    "version": 1
  },
  "userdoc": {
    "kind": "user",
    "methods": {},
    "version": 1
  }
}